:020000040C00EE
:100000000088FE1F010200089902000899020008FA
:1000100099020008990200089902000800000000F7
:10002000000000000000000000000000990200082D
:10003000990200080000000099020008DD1B00087A
:100040009902000899020008990200089902000824
:100050009902000899020008990200089902000814
:1000600099020008000000000000000000000000ED
:100070009902000800000000990200089902000897
:1000800099020008990200089902000899020008E4
:1000900099020008990200089902000899020008D4
:1000A00099020008990200089902000899020008C4
:1000B00099020008990200089902000899020008B4
:1000C00099020008990200089902000899020008A4
:1000D0009902000899020008990200089902000894
:1000E0009902000899020008990200089902000884
:1000F0009902000899020008990200089902000874
:100100009902000899020008990200089902000863
:100110009902000899020008990200089902000853
:100120009902000899020008990200089902000843
:100130009902000899020008990200089902000833
:100140009902000899020008990200089902000823
:100150009902000899020008990200089902000813
:10016000000000000000000000000000000000008F
:1001700099020008990200089902000899020008F3
:1001800099020008990200089902000899020008E3
:100190009902000899020008990200084922000803
:1001A000990200083122000899020008990200080B
:1001B00099020008990200089902000899020008B3
:1001C00099020008990200089902000899020008A3
:1001D0009902000899020008990200080000000036
:1001E0009902000899020008990200089902000883
:1001F00099020008000000009902000800000000B9
:10020000DFF874D01D4880471D4C1E4DAC4209DA02
:1002100021686268A368043BA2BFC858D050FAE7BF
:100220000C34F3E7184B194CA34208DA19685A68E2
:100230000020043AA4BF8850FBE70833F4E71448D1
:100240008047144880470000586D000C0088FE1F4E
:10025000A8000000586D000C0088FE1F0000000080
:10026000A888FE1FE8020000000000200000000037
:1002700000000020000000000088FE1F9D02000812
:1002800048020008600200086002000878020008C6
:1002900011420008A1230008FEE7000098B500AF56
:1002A000054A4FF0005314460FCB84E80F0001F0CD
:1002B000AFFE01F017FF98BDC4FF032080B584B0E6
:1002C00000AF2F4BDB6803F48033002B3ED02D4B67
:1002D000DB6803F00103002B02D02B4BFB6002E034
:1002E00001F0F6FEF860274B1B6803F00403002BB7
:1002F00020D0244B9B6803F070631B0E0133BB605E
:10030000204B9B6803F4FE431B0A01337B601D4BAB
:100310009B6803F4FE031B0C01333B60BB683A6827
:1003200002FB03F3FA68B2FBF3F37A6802FB03F310
:10033000FB600DE0134B9B6803F07F0301333B60D0
:10034000FA683B68B2FBF3F3FB6001E00E4BFB6025
:100350000B4BDB68DBB20133FA68B2FBF3F3FB60F3
:10036000074B1B6903F001030133FA68B2FBF3F397
:10037000FB60064AFB6813601037BD4680BD00BFB6
:10038000004600501047005000366E01C0FF0320A9
:1003900080B485B000AFF8600B467A60FB72FB7AE0
:1003A0009B08DBB21846FB7A9B08DBB21A46FB6857
:1003B000043253F82220FB7A03F00303DB001946D2
:1003C000F8238B40DB4302EA0301FB68021D43F87C
:1003D0002210FB685A6FFB7A5B00194603238B409F
:1003E000DB431A40FB685A67FB683A4A934203D0E2
:1003F000FB68394A93420AD1FB681A6EFB7A0121E5
:1004000001FA03F3DB431A40FB681A6642E07B689B
:100410001B78DBB25BB2002B3CDA7B685A68FB7A54
:100420009A40FB685A60FB7ADB08DBB21846FB7A1D
:10043000DB08DBB21A46FB68103253F82220FB7A45
:1004400003F007039B00194607238B40DB4302EAB6
:100450000301FB6800F1100243F82210FB7ADB086D
:10046000DBB21846FB7ADB08DBB21A46FB681032B7
:1004700053F822207B681B7A1946FB7A03F00703A6
:100480009B0001FA03F342EA0301FB6800F110024A
:1004900043F82210FB7A9B08DBB21846FB7A9B08D4
:1004A000DBB21A46FB68043253F822207B681B78C3
:1004B0001946FB7A03F00303DB0001FA03F342EA77
:1004C0000301FB68021D43F822101437BD465DF896
:1004D000047B7047008E0248008F024880B400AF52
:1004E000034B1B681846BD465DF8047B704700BF90
:1004F000C0FF032080B400AF034BD3F8C4301846CC
:10050000BD465DF8047B70470040005080B584B064
:1005100000AF7860FFF7D2FE0B4B1B680B4AA2FBC3
:1005200003239A0C7B6802FB03F37B600023FB60D0
:1005300003E000BFFB680133FB60FA687B689A4206
:10054000F7D31037BD4680BDC0FF032083DE1B43B9
:1005500080B400AF034B5B681846BD465DF8047B72
:10056000704700BF7440005080B483B000AF786023
:10057000034A7B68D3600C37BD465DF8047B704747
:1005800074400050B0B584B002AF7860002000F035
:10059000C5F800F0B7FA7B68DB79002B0AD000F0D1
:1005A000EFFA00BF00F0DAFA034683F00103DBB292
:1005B000002BF7D17B685B7A184600F029F900BF61
:1005C000FFF798FF0346002BFAD17B681B7A184689
:1005D00000F072FA7B681B7C184600F037F97B68E4
:1005E0005B7C184600F05AF97B689B7C184600F04B
:1005F00041F97B68DB7C184600F064F97B689B79E5
:10060000002B0AD000F0F4FA00BF00F019FB0346FB
:1006100083F00103DBB2002BF7D17B68DB78002B82
:1006200009D17B689B7983F00103DBB2002B17D0E3
:1006300000F02AFB14E000F017FB7B6899887B68C8
:10064000DA787B685B781D467B681B781C467B6884
:100650009B780093084611462A46234600F024FB67
:100660007B68DB68B3F5803F03D14FF4803000F046
:1006700055F8FFF723FE0837BD46B0BD80B485B0FE
:1006800000AF78607B681B0FFB607B6823F07043D2
:10069000BB60FA6813465B0013449B001A46044B88
:1006A0001344BA681A601437BD465DF8047B70477E
:1006B0001444005080B485B000AF78607B681B0F95
:1006C000FB607B6823F07043BB60FA6813465B00F5
:1006D00013449B001A46084B13441A68BB68134026
:1006E000002B14BF01230023DBB218461437BD468C
:1006F0005DF8047B704700BF0C44005080B500AF2C
:10070000FFF7ECFE0246044B5B6903F0010322FA9B
:1007100003F3184680BD00BF0046005080B483B08C
:1007200000AF78600649064BDB6823F480327B68B3
:100730001343CB600C37BD465DF8047B704700BFA8
:100740000046005080B483B000AF78600649064B85
:100750009B6923F480327B6813438B610C37BD4661
:100760005DF8047B704700BF0046005080B483B042
:1007700000AF78600649064B5B6A23F440327B6821
:1007800013434B620C37BD465DF8047B704700BFD6
:100790000046005080B483B000AF0346FB80FB8866
:1007A000002B08D10A4A0A4BDB6823F4807323F03C
:1007B0000103D36007E0064A054BDB6843F480730E
:1007C00043F00103D3600C37BD465DF8047B7047EE
:1007D0001047005080B483B000AF0346FB7100BFE8
:1007E000094BD3F8C43003F00803002BF8D10749B4
:1007F000064BDB6823F04002FB791343CB600C37D8
:10080000BD465DF8047B7047004000500043005037
:1008100080B483B000AF0346FB7100BF094BD3F82F
:10082000C43003F00803002BF8D10749064BDB68FE
:1008300023F08002FB791343CB600C37BD465DF893
:10084000047B7047004000500043005080B483B0E8
:1008500000AF78600649064BDB6823F0FF027B6837
:10086000013B1343CB600C37BD465DF8047B7047FA
:100870000046005080B483B000AF78600649064B54
:100880001B6A23F001027B68013B13430B620C37A8
:10089000BD465DF8047B70470046005080B483B0CD
:1008A00000AF78600649064B1B6923F001027B68A4
:1008B000013B13430B610C37BD465DF8047B704769
:1008C0000046005080B483B000AF78600649064B04
:1008D0005B6923F001027B68013B13434B610C37DA
:1008E000BD465DF8047B70470046005080B483B07D
:1008F00000AF78600649064B9B6923F007027B68CE
:10090000013B13438B610C37BD465DF8047B704798
:100910000046005080B483B000AF78600649064BB3
:10092000DB6923F03F027B68013B1343CB610C374B
:10093000BD465DF8047B70470046005080B483B02C
:1009400000AF78600649064B5B6A23F0FF027B68C4
:10095000013B13434B620C37BD465DF8047B704787
:100960000046005080B485B000AF78607B681B0FF4
:10097000FB607B6823F07043BB60FA6813465B0042
:1009800013449B001A46044B1344BA681A60143788
:10099000BD465DF8047B70474846005080B485B082
:1009A00000AF78607B681B0FFB607B6823F07043AF
:1009B000BB60FA6813465B0013449B001A46084B61
:1009C00013441A68BB681340002B14BF0123002393
:1009D000DBB218461437BD465DF8047B704700BF94
:1009E0004046005080B400AF054A054B5B6923F4D4
:1009F000803323F002035361BD465DF8047B7047EA
:100A00001047005080B483B000AF78603960284A46
:100A1000274B5B6943F00103536100BF244B1B6903
:100A200003F00103002BF9D0214A214B5B6943F00D
:100A3000100353611E493B68013B1A027B68013B6E
:100A40001B0613434B611A4A194B5B6943F0400381
:100A50005361174A164B5B6923F010035361144A24
:100A6000134B5B6943F48023536100BF104B1B6938
:100A700003F00403002BF9D00D4A0D4B5B6923F002
:100A80000103536100BF0A4B1B6903F00103002BF4
:100A9000F9D1074A064B5B6923F040035361054BCC
:100AA0000822DA600C37BD465DF8047B704700BF52
:100AB000104700506041005080B582B000AF03463F
:100AC000FB710F4A0E4B5B6843F480135360FB7954
:100AD000012B0ED10A4A0A4B5B6823F48013536042
:100AE0006420FFF713FD064A054B5B6843F40023BF
:100AF00053606420FFF70AFD0837BD4680BD00BF84
:100B00001047005080B400AF124B1B6803F0010384
:100B1000002B09D10F4B01225A6000BF0D4B1B68FF
:100B200003F00103002BF9D00B4B1B6803F4007397
:100B3000002B0AD0084B4FF400729A6000BF064B9E
:100B40001B6803F40073002BF9D1BD465DF8047BEC
:100B5000704700BF004200500044005080B400AF16
:100B6000064B1B6803F00803002B0CBF0123002376
:100B7000DBB21846BD465DF8047B70470043005069
:100B800080B500AF4FF40000FFF7EEFC174A174B9B
:100B9000DB6923F03003D36100BFFFF7D9FC0346C4
:100BA00003F40003002BF8D04FF40030FFF7DCFC17
:100BB0000E4B08225A6000BFFFF7CAFC034603F43D
:100BC0000033002BF8D04FF40020FFF7CDFC074A8C
:100BD000064BDB6843F00803D36000BFFFF7B8FCA7
:100BE000034603F40023002BF8D080BD00430050DF
:100BF000B0B500AF0F4A0F4B5B6823F480335360EE
:100C00000D4D0D4B5B6823F4702424F0300401F08B
:100C10005FFA0246094BA3FB02231B0D013B1B0499
:100C200023436B60034A034B5B6823F40033536038
:100C3000B0BD00BF10470050004700506BCA5F6B4B
:100C400080B400AF074B1B6803F46073B3F5607F9B
:100C50000CBF01230023DBB21846BD465DF8047BC0
:100C6000704700BF1047005080B400AF054A054BE5
:100C70005B6823F4803323F002035360BD465DF8C4
:100C8000047B70471047005080B400AF054A054B05
:100C90005B6843F4803343F002035360BD465DF864
:100CA000047B70471047005080B586B000AFBA6033
:100CB0007B600346FB810B467B73FB891846FFF77D
:100CC00069FD7B7B012B40F08B80FB89002B09D1D8
:100CD00001F0FEF90246544BA3FB02239B0C9B053B
:100CE0007B6102E04FF0C0637B617B697A6802FB45
:100CF00003F2BB68B2FBF3F37B617B694B4AA2FB57
:100D000003231B099B0D3B61494A494B5B6843F038
:100D10000103536000BF464B1B6803F00103002B27
:100D2000F9D0434A424B5B6843F01003536040499B
:100D30003F4B9A683F4B13407A68013A12021A43BC
:100D40003B69013B1B041A43BB68013B1B06134371
:100D50008B60374A364B5B6843F040035360344A3C
:100D6000334B5B6823F010035360314A304B5B68B0
:100D700043F48023536000BF2D4B1B6803F0040332
:100D8000002BF9D02A4A2A4B5B6823F001035360F9
:100D900000BF274B1B6803F00103002BF9D17B69CF
:100DA000254AA2FB03235B099B0D3B613A6A3B6921
:100DB0009A4202D2386900F045F87B695B081F4A05
:100DC000A2FB03235B099B0D3B613A6A3B699A4294
:100DD00002D2386900F036F8386A00F033F81CE0C7
:100DE0001349134B9B6823F07F023B6A013B13437B
:100DF0008B6000BF0E4B1B6803F01003002BF9D073
:100E00000B4A0B4B5B6843F00103536000BF084B78
:100E10001B6803F00103002BF9D0094B0522DA60AF
:100E20001837BD4680BD00BF83DE1B43ABAAAAAA0C
:100E300010470050FF8080F089888888B7600BB623
:100E40006041005080B582B000AF78600B490B4B19
:100E50009B6823F4FE027B68013B1B0413438B60F9
:100E600000BF064B1B6803F02003002BF9D0322093
:100E7000FFF74CFB0837BD4680BD00BF1047005050
:100E800080B483B000AF78607B689B6BDBB223F0EB
:100E90007F03DBB218460C37BD465DF8047B704714
:100EA00080B483B000AF786039607B683A68DA64F8
:100EB0000C37BD465DF8047B704700BF80B586B037
:100EC00000AFF860B9601346FB7110237B61F868CE
:100ED00000F09EF8BB681B7A002B02D0BB681B7A1F
:100EE0007B61FB79002B14D0BB681B79002B09D0E8
:100EF000BB681B681A467B69F86811461A4600F001
:100F000045F906E0BB681B68F86819467A6900F085
:100F1000CBF8BB68DB79013B5A007B695B08013386
:100F20001B02134343F4403343F00103FA68D363D5
:100F3000BB685B79013B1B0643F48172FB685A6313
:100F4000BB689B79002B09D0FB685A6BBB689B7907
:100F5000013B1B041A43FB685A6308E0FB685A6BA9
:100F6000BB685B79013B1B041A43FB685A63FB684F
:100F70004FF4A0629A63FB684FF0FF32DA64BB68FB
:100F80005B891A46FB681A641837BD4680BD00BFEE
:100F900080B582B000AF78600B467B807B68D3F869
:100FA000083103F0E063002B10D100BF7868FFF731
:100FB00067FF0346802BF9D078684FF40051FFF7A4
:100FC0006FFF7A887B68C3F8802003E07A887B68AB
:100FD000C3F880210837BD4680BD00BF80B485B00E
:100FE00000AF78607B68D3F80C3103F0E063002B2E
:100FF00003D17B685B6DFB8103E07B68D3F81C3118
:10100000FB81FB8918461437BD465DF8047B7047A9
:1010100080B582B000AF78607B681A4A934203D0F3
:101020007B68194A934203D1184800F091F916E001
:101030007B68174A934203D07B68164A934203D1D8
:10104000154800F085F90AE07B68144A934203D002
:101050007B68134A934202D1124800F079F97B6809
:101060000322DA6000BF7B68DB6803F00103002B1A
:10107000F9D07B681B6C23F00F027B681A64083779
:10108000BD4680BD0000034000020340080003404D
:1010900000000248000202480800024800400248DE
:1010A000004202480840024880B58EB000AFF860A8
:1010B000B9607A60BB68632B5AD97B68002B57D024
:1010C000FFF71CFB02462F4BA3FB02235B093B628D
:1010D000BB682C4AA2FB03235B09BB604FF480630F
:1010E000FB620123BB6240F2FF337B624FF48063FB
:1010F0003B6322E03B6A3A6B02FB03F2BB68796810
:1011000001FB03F3B2FBF3F3FB61FB699B0ABB61D9
:10111000FB69C3F309037B61BB69B3F5806F09D831
:101120007A697B6A9A4205D27B697B62BB69BB6242
:101130003B6BFB623B6B013B3B633B6B002BD9D1B1
:10114000FB6A013B43F40042FB681A61FB685A6981
:101150000D4B13407A68013A92021A43BB6A013B75
:101160001B041A43FB685A61002387F8373002E0FA
:10117000012387F8373097F8373018463837BD469F
:1011800080BD00BF1F85EB51EF8000FC80B58CB0A7
:1011900000AFF860B9607A60FFF7B0FA03463B62CF
:1011A000BB687A6802FB03F3FB610123FB623A6AC6
:1011B000FB699A425FDD3A6AFB6992FBF3F3BB621B
:1011C00010E0FB6A0133FB62BB687A6802FB03F341
:1011D0001A46FB6A03FB02F3FB613A6AFB6992FB66
:1011E000F3F3BB62BB6A40F2FE329342E9D83A6A3B
:1011F0007B68B96A01FB03F3F96A01FB03F3B2FBF5
:10120000F3F3BB613A6ABB6A0133796801FB03F30C
:10121000F96A01FB03F3B2FBF3F37B61BA687B6904
:10122000D31A83EAE372A2EBE372B968BB69CB1A03
:10123000002BB8BF5B429A4202DABB6A0133BB6241
:10124000BB6AC3F58063BB62BB6A43F48042FB6840
:101250001A61FB685A690C4B13407A68013A920292
:101260001A43FB6A013B1B041A43FB685A610023C3
:1012700087F8273002E0012387F8273097F82730D6
:1012800018463037BD4680BDEF8000FC80B485B085
:1012900000AFF860B9603B601346FB71FB68D3F8A0
:1012A000083123F0E062FB68C3F80821FB68D3F83B
:1012B0000821094B13403A681102BA681143FA79C0
:1012C00012060A431A43FB68C3F808211437BD46C7
:1012D0005DF8047B704700BFC0C0FFF880B485B0E4
:1012E00000AFF8600B467A60FB72FB689A69FB7A84
:1012F000072101FA03F3DB431A40FB7A796801FA0C
:1013000003F31A43FB689A611437BD465DF8047B0A
:10131000704700BF80B485B000AFF8600B467A60BC
:10132000FB72FB68D3F80821FB7A072101FA03F36B
:10133000DB431A40FB7A796801FA03F31A43FB682E
:10134000C3F808211437BD465DF8047B704700BF21
:1013500080B582B000AF78607B68284A934218D18C
:101360004FF40060FFF7FEFA00BF4FF40060FFF794
:1013700015FB0346002BF8D14FF40060FFF77EF910
:1013800000BF4FF40060FFF795F90346002BF8D13A
:1013900030E07B681A4A934214D11A48FFF7E2FA08
:1013A00000BF1848FFF7FAFA0346002BF9D1154899
:1013B000FFF764F900BF1348FFF77CF90346002BE1
:1013C000F9D117E07B68104A934213D10F48FFF719
:1013D000C9FA00BF0D48FFF7E1FA0346002BF9D127
:1013E0000A48FFF74BF900BF0848FFF763F90346C7
:1013F000002BF9D10837BD4680BD00BF080003406F
:101400000800024880000010084002480001001057
:1014100080B584B000AF7860144B1B68002B02D1FC
:10142000124B134A1A60114B1B68FB607B68033335
:1014300023F003037B600D4B1A687B6813440D4A4D
:10144000934207D2094B1A687B681344074A13601A
:10145000FB6806E002F0D6FE02460C2313604FF054
:10146000FF3318461037BD4680BD00BFA888FE1F59
:1014700000000020C0FF032080B400AFBD465DF82F
:10148000047B704780B483B000AF78607B684FF412
:101490000042C3F818210C37BD465DF8047B704745
:1014A00080B483B000AF78607B68D3F8143103F464
:1014B0008053002B14BF01230023DBB218460C37E6
:1014C000BD465DF8047B704780B483B000AF7860A0
:1014D0007B68D3F8143103F40063002B14BF01239D
:1014E0000023DBB218460C37BD465DF8047B70471D
:1014F00080B584B000AF78600023FB737B685B68C5
:101500005B6898470346FB73FB7B18461037BD4664
:1015100080BD00BF80B586B000AFF860B9607A606A
:101520000423FB75FB685B6893F82130022B00D025
:1015300007E0F868B9687A6800F008F80346FB75B8
:1015400000BFFB7D18461837BD4680BD80B586B00C
:1015500000AFF860B9607A600323FB75BB68002BAD
:1015600058D07B68002B55D00223FB75FB689B6825
:101570001B7EDBB283F00103DBB2002B4AD0FB6899
:101580009B6801221A76FB685B6893F82330002B76
:1015900004D0FB681B681846FFF774FF00233B610B
:1015A0001CE0FB685B6893F82330002B08D000BF79
:1015B000FB681B681846FFF773FF0346002BF7D143
:1015C000FB681968BA683B6913441B789BB20846EC
:1015D0001946FFF7DDFC3B6901333B613A697B68E3
:1015E0009A42DED3FB685B6893F82330002B0BD064
:1015F00000BFFB681B681846FFF766FF034683F0D1
:101600000103DBB2002BF4D10023FB75FB689B6860
:1016100000221A76FB7D18461837BD4680BD00BFF4
:1016200080B483B000AF78600B46FB701346BB708C
:10163000F878FB787A6806339B0013445B6823F0E4
:101640000702BB781A437968831D9B000B445A60DC
:101650000C37BD465DF8047B704700BF80B483B093
:1016600000AF786039607B681A6C3B681A437B680E
:101670001A640C37BD465DF8047B704780B483B0B4
:1016800000AF786039607B68D3F808213B681A4363
:101690007B68C3F808210C37BD465DF8047B7047B2
:1016A00080B582B000AF786039607868396801220F
:1016B000FFF704FC0837BD4680BD00BF80B483B08F
:1016C00000AF78607B681B6C23F00F0343F00202CD
:1016D0007B681A640C37BD465DF8047B704700BF19
:1016E00080B582B000AF0023FB711D4804211D4A64
:1016F000FEF74EFE1C481D49FFF7D2FF1A48002195
:101700000122FFF78DFF1848002104220123FFF773
:10171000BDFD1548FFF7D2FF11480521144AFEF719
:1017200037FE114808210322FFF7D8FD0E484FF479
:101730008041FFF793FF0C4810210022FFF7CEFDF8
:10174000094810210522FFF7E5FD07484FF08041C9
:10175000FFF794FFFB7918460837BD4680BD00BFF0
:101760000081024878690008000003402C690008E5
:101770003869000880B400AF044BDB6803F4E06311
:101780001B0A1846BD465DF8047B704700ED00E07B
:1017900080B483B000AF03463960FB7197F907301E
:1017A000002B0ADB0D4997F907303A68D2B2920054
:1017B000D2B20B4483F800230AE00949FB7903F015
:1017C0000F03043B3A68D2B29200D2B20B441A76AD
:1017D0000C37BD465DF8047B704700BF00E100E0B8
:1017E00000ED00E080B489B000AFF860B9607A60C5
:1017F000FB6803F00703FB61FB69C3F10703062BDA
:1018000028BF0623BB61FB690633062B02D9FB699F
:10181000013B00E000237B61BB69012202FA03F374
:101820005A1EBB681A407B699A407B69012101FA04
:1018300003F3591E7B680B40134318462437BD46FB
:101840005DF8047B704700BF80B582B000AF786060
:101850007B68013BB3F1807F01D301230FE00A4A8B
:101860007B68013B53604FF0FF303F21FFF790FF53
:10187000054B00229A60044B07221A600023184689
:101880000837BD4680BD00BF10E000E090B486B0D0
:1018900000AF78600023FB736B497A681346DB0066
:1018A00013449B000B4418331B68BB60674B1B68D9
:1018B000002B09D17A681346DB0013449B00624A6F
:1018C0001344624A1360BBE0604B1B687B61BB68DA
:1018D0003B61ABE07B699B691A463B699B1A3B61A4
:1018E0003B69002B7ADC7B695B68002B26D07B6927
:1018F00059687A681346DB0013449B00524A13442C
:101900000B607B69596850487A681346DB001344C2
:101910009B00034459604C497A681346DB0013442A
:101920009B000B447A691A607A681346DB00134403
:101930009B00454A1A447B695A601CE0434B196876
:1019400041487A681346DB0013449B000344196046
:101950003E4B19687A681346DB0013449B003A4AF1
:1019600013444B607A681346DB0013449B00364AED
:101970001344364A136034497A681346DB00134433
:101980009B000B441B689A693B69D1182E487A6802
:101990001346DB0013449B000344183319602A49A3
:1019A0007A681346DB0013449B000B4419682648F1
:1019B0007A681346DB0013449B0003441B68986954
:1019C000214C7A681346DB0013449B0023441833F0
:1019D0001B68C31A8B610123FB7324E03B69002B56
:1019E00021DD7B691B68002B1DD117497A681346DE
:1019F000DB0013449B000B447A695A607A681346F3
:101A0000DB0013449B00104A1A447B691A60396951
:101A10000D487A681346DB0013449B0003441833D7
:101A200019600123FB737B691B687B617B69002B59
:101A300006D0FB7B83F00103DBB2002B7FF44AAFBF
:101A40001837BD4690BC70475489FE1FC888FE1FDA
:101A500080B485B000AF78607A681346DB00134429
:101A60009B00294A1344FB60FB685B68002B07D18D
:101A7000FB681B68002B03D1244B00221A603DE059
:101A8000FB685B68002B14D1FB681B681F4A13605E
:101A90001E4B1B6800225A601C4B1B681B4A1268B5
:101AA0009169FA6892690A449A61FB6800221A6097
:101AB00024E0FB681B68002B07D1FB685B680022F1
:101AC0001A60FB6800225A6018E0FB685B68FA68DD
:101AD00012681A60FB681B68FA6852685A60FB68F3
:101AE0001B68FA6812689169FA6892690A449A61F7
:101AF000FB6800221A60FB6800225A601437BD465A
:101B00005DF8047B704700BF5489FE1FC888FE1F24
:101B100080B582B000AF2F4B1B687B6050E07B68C4
:101B200093F82030002B13D07B685B691846FFF7D1
:101B30008FFF7B6800225A737B685B691A4601231A
:101B40009340DA43244B1B681340234A136034E06C
:101B50007B681B7B002B12D17B685B7B012B2CD11C
:101B60007B685B691846FFF773FF7B6802225A7334
:101B70007B689B687A681269104698471DE07B680D
:101B80001B7B012B18D17B685B7B012B15D17B68FC
:101B90005B691846FFF75CFF7B68DA697B689A61CE
:101BA0007B685B691846FFF771FE7B689B687A6803
:101BB00012691046984700E009E0064B1B687B60FD
:101BC0007B68002B03D07B689B69002BA7D008376C
:101BD000BD4680BDC888FE1FCC88FE1F80B582B080
:101BE00000AF0E4B1B687B600D4B1B6801330C4A2A
:101BF00013607B68002B0ED07B689B69012B05D995
:101C00007B689B695A1E7B689A6104E07B680022AE
:101C10009A61FFF77DFF0837BD4680BDC888FE1F6B
:101C2000D088FE1F80B584B000AF78600023FB73BE
:101C30007B681B7883F00103DBB2002B20D0134BB1
:101C400000221A601248FFF7FFFD0346FB73FB7B7F
:101C5000012B15D0FFF78EFD034618463F210022C9
:101C6000FFF7C0FD03464FF0FF301946FFF790FD28
:101C7000084B00221A607B6801221A700023FB7354
:101C8000FB7B18461037BD4680BD00BFC888FE1FCD
:101C900080320200CC88FE1F80B489B000AFF860AB
:101CA0007A603B600B46FB720023FB610023BB6143
:101CB00000237B61FB68B3F57A7F02D20023FB61CE
:101CC0007BE00023BB6175E0BB6901229A403E4B7B
:101CD0001B681340002B6AD1BB6901229A403A4B22
:101CE0001B681343384A13603849BA691346DB004E
:101CF00013449B000B441033BA695A603349BA69E4
:101D00001346DB0013449B000B440833FA7A1A7124
:101D10002E49BA691346DB0013449B000B44083379
:101D200002225A71FB682A4AA2FB03239B097B61AA
:101D30007B69591C2548BA691346DB0013449B0094
:101D40000344183319602149BA691346DB00134470
:101D50009B000B4418337A695A601C49BA691346D0
:101D6000DB0013449B000B4408337A681A60174960
:101D7000BA691346DB0013449B000B4410333A68E6
:101D80001A601249BA691346DB0013449B000B44E6
:101D900000225A600D49BA691346DB0013449B00C8
:101DA0000B4400221A60BB690133FB6105E0BB698B
:101DB0000133BB61BB69072B86D9FB691846243701
:101DC000BD465DF8047B7047CC88FE1F5489FE1F1A
:101DD000D34D621080B584B000AF78600123FB73EF
:101DE0007B685A1E1A491346DB0013449B000B44C0
:101DF00008335B79022B26D17B685A1E7B68591EFB
:101E000013480B46DB000B449B00034418335B680C
:101E1000591C0F481346DB0013449B00034418333E
:101E200019607B685A1E0A491346DB0013449B0065
:101E30000B44083301225A717B68013B1846FFF7B7
:101E400025FD0023FB73FB7B18461037BD4680BD84
:101E50005489FE1F80B400AF044BDB6803F4E063D9
:101E60001B0A1846BD465DF8047B704700ED00E094
:101E700080B483B000AF0346FB7197F90730002BA5
:101E80000BDB084997F907305B09FA7902F01F026A
:101E9000012000FA02F241F823200C37BD465DF81C
:101EA000047B704700E100E080B483B000AF0346DC
:101EB0003960FB7197F90730002B0ADB0D4997F960
:101EC00007303A68D2B29200D2B20B4483F80023B2
:101ED0000AE00949FB7903F00F03043B3A68D2B2E8
:101EE0009200D2B20B441A760C37BD465DF8047BE3
:101EF000704700BF00E100E000ED00E080B489B071
:101F000000AFF860B9607A60FB6803F00703FB611B
:101F1000FB69C3F10703062B28BF0623BB61FB69DE
:101F20000633062B02D9FB69013B00E000237B61ED
:101F3000BB69012202FA03F35A1EBB681A407B698F
:101F40009A407B69012101FA03F3591E7B680B401B
:101F5000134318462437BD465DF8047B704700BF25
:101F600080B582B000AF78607B681B785BB21846A2
:101F7000FFF77EFF0837BD4680BD00BF90B583B038
:101F800000AF78607B681C78FFF764FF01467B68D0
:101F90005B781A467B689B78084611461A46FFF71D
:101FA000ADFF024663B218461146FFF77DFF7B681E
:101FB000DB78002B02D07868FFF7D2FF00231846A9
:101FC0000C37BD4690BD00BF80B485B000AF7860CF
:101FD0007B6803F00703FB600C4BDB68BB60BA68EF
:101FE0004FF6FF031340BB60FB681A02BB68134344
:101FF00043F0BF6343F40033BB60044ABB68D36063
:102000001437BD465DF8047B704700BF00ED00E06B
:1020100080B582B000AF0120FFF7D6FF72B6214B2A
:10202000214A9A60BFF34F8F62B61E4A1D4BD3F808
:10203000883043F47003C2F888301C4B03F580539A
:1020400014331B687B607B6823F00F037B607B6825
:1020500043F004037B60154B03F5805314337A6817
:102060001A60104A0F4B5B6923F0100353610D4A4D
:102070000C4B5B6923F0080353610A4A094B5B6A06
:1020800023F480335362074A064B5B6A23F4003320
:102090005362044A034B5B6A23F48023536208377C
:1020A000BD4680BD00ED00E00000000800100058B3
:1020B00080B485B000AF78600023FB737B68012299
:1020C0001A70FB7B18461437BD465DF8047B7047D9
:1020D00080B400AF024B1846BD465DF8047B7047E4
:1020E000001BB700B0B586B000AF134B3C1D1D46BA
:1020F0000FCD0FC42B6823603B1D1846FEF742FA34
:102100000020FEF767FB0020FEF71CFB0420FEF713
:10211000EDFBFEF767FC01202021FEF773FC002099
:10212000FEF724FB0120FEF709FC0120FEF7F2FB7D
:102130001837BD46B0BD00BF8C69000880B582B0BD
:1021400000AF0023FB711548FFF7B2FF0346FB7198
:10215000FB79002B04D11248FFF7CAF90346FB7143
:10216000FB79002B04D10F48FFF75CFD0346FB71A0
:10217000FB79002B04D10C48FFF700FF0346FB71ED
:10218000FB79002B04D10948FFF7F8FE0346FB71E9
:10219000FB7918460837BD4680BD00BFD888FE1FB2
:1021A0000088FE1FD488FE1F846900088869000823
:1021B00080B483B000AF786039607B683A68DA64D5
:1021C0000C37BD465DF8047B704700BF80B582B018
:1021D00000AF78607B681B681846FEF7FFFE034679
:1021E000DBB218460837BD4680BD00BF80B582B05F
:1021F00000AF786039607B681B6818463968FFF764
:10220000D7FF0837BD4680BD80B584B000AFF86009
:10221000B9607A607B680548B9681A46FFF77AF9B1
:102220007B6818461037BD4680BD00BF0088FE1F82
:1022300080B400AF034B01221A70BD465DF8047BE9
:10224000704700BFDC88FE1F98B500AF104B1C68BC
:10225000631C0F4A13600F48FFF7B8FF03461A4686
:102260000D4B1A550A4B1A680C4B82FB030153188D
:10227000D911D317C91A0B461B025B1AD11A044B8A
:10228000196004484FF44041FFF7B0FF98BD00BF0C
:10229000808BFE1F0088FE1F7C8AFE1F818080804D
:1022A00080B483B000AF4FF6FF73FB80124B1A6807
:1022B000124B1B689A4201D1FB8817E00E4B1B683A
:1022C0005A1C0D490A600E4AD35CFB800A4B1A68FF
:1022D0000C4B82FB03015318D911D317C91A0B46B3
:1022E0001B025B1AD11A044B1960FB8818460C3785
:1022F000BD465DF8047B7047788AFE1F808BFE1F09
:102300007C8AFE1F8180808080B582B000AFFFF79D
:10231000C7FF0346FB80FB880A2B08D10B4800212E
:10232000642201F0A6FF0A4B00221A6008E0084B65
:102330001B685A1C06490A60FA88D1B2034AD15474
:10234000024B18460837BD4680BD00BFE488FE1F1B
:102350004889FE1F80B400AF064B1B68002B04DDCC
:10236000044B1B68013B034A1360BD465DF8047BC8
:10237000704700BF888BFE1F80B483B000AF7860C9
:10238000064A7B68136000BF044B1B68002BFBDC14
:102390000C37BD465DF8047B704700BF888BFE1F7D
:1023A000B0B584B002AFFFF7C9FE0346FB71FB79FD
:1023B000002B00D0FEE74FF47A7001215A4A002327
:1023C000FFF76AFC03463B603B681846FFF702FDD7
:1023D000564B1B78002B04D0554B1B680133544AD5
:1023E0001360534B1B68B3F5B47F02DB504B0022E4
:1023F0001A604F4B1B68184601F08CFB02460B46D7
:102400001046194646A3D3E9002301F0E9FB024632
:102410000B46104619464FF00002464B01F00AFDEC
:1024200002460B461046194600F0D4F802460B4609
:102430001046194601F096FE02463F4B1A603C4B8F
:102440001B68184601F066FB02460B46104619460B
:1024500033A3D3E9002301F0C3FB02460B46104629
:1024600019464FF00002334B01F0E4FC02460B46E4
:102470001046194600F06CF802460B461046194605
:1024800001F070FE02462D4B1A602B4B1B6818465C
:1024900001F052FB04460D46284B1B68184601F01C
:1024A0004BFB02460B46CDE90023254822462B462E
:1024B00002F04CFBFFF728FF0246224B1A60214B2B
:1024C0001B68184602F084FB0346042B0CD91D4BF5
:1024D0001B6818461C49052202F082FB0346002BAC
:1024E00002D1124B01221A70164B1B68184602F0DB
:1024F0006FFB0346032B0CD9124B1B68184613497C
:10250000042202F06DFB0346002B02D1074B002290
:102510001A700A20FFF730FF5AE700BFAFF30080C0
:102520001F85EB51B81E094055230008DD88FE1FAA
:10253000E088FE1F00806640748AFE1F848BFE1FA9
:10254000A06900087C8BFE1FA8690008B06900081C
:1025500030B51E4A21F00043934287B01BDD1C4A70
:10256000934205DD02460B4601F086F907B030BD07
:1025700002AA00F079F800F00303012BDDE9020163
:1025800017D0022B0DD0E3B10124DDE90423009420
:1025900000F09EFFEAE70022002300F085FA07B072
:1025A00030BDDDE9042300F07FFA01F1004107B0FE
:1025B00030BDDDE90445009322462B4600F088FF3C
:1025C000F3E7DDE9042300F06FFACFE7FB21E93FF1
:1025D000FFFFEF7F30B5224A21F00043934287B0DE
:1025E0001CDD204A934205DD02460B4601F044F90A
:1025F00007B030BD02AA00F037F800F00300012850
:102600001DD0022812D008B3DDE90201DDE9042360
:1026100000F04AFA01F1004107B030BD00230093F9
:102620000022002300F054FF07B030BD0124DDE993
:102630000201DDE90423009400F04AFFEAE7DDE946
:102640000201DDE9042300F02FFAD1E70124DDE9DE
:102650000201DDE90423009400F03AFFC8E700BF5F
:10266000FB21E93FFFFFEF7F2DE9F04F984B21F071
:1026700000449C428FB006460F468A46154640F3FA
:102680008280944B9C4227DC002987A3D3E9002356
:1026900040F3A48101F0F0F88F4B9C4206460F46B0
:1026A00000F0888082A3D3E9002301F0E5F8024618
:1026B0000B46C5E900233046394601F0DDF87CA31E
:1026C000D3E9002301F0D8F84FF0010BC5E902016E
:1026D00058460FB0BDE8F08F804B9C4240F3888095
:1026E0007F4B9C425BDC4FEA245BABF2164BA4EBC6
:1026F0000B518946804601F00DFD01F00BFA0646AC
:102700000F4632463B4640464946CDE9086701F050
:10271000B3F80022734B01F063FA8946804601F05A
:10272000F9FC01F0F7F906460F4632463B464046B3
:102730004946CDE90A6701F09FF80022694B01F094
:102740004FFA00220023CDE90C0101F0B1FC002872
:1027500000F06D81002330463946002201F0A8FCCC
:10276000002814BF0123022302225F490092019135
:102770005A4608A8294600F0BFFABAF1000FC0F285
:102780004B81834607E000220023C5E90067C5E9C5
:1027900002234FF0000B58460FB0BDE8F08F024601
:1027A0000B4601F069F84FF0000BC5E90201C5E9DD
:1027B0000001F0E740A3D3E9002301F05DF840A356
:1027C000D3E9002306460F4601F056F802460B46B1
:1027D000C5E900233046394601F04EF838A3D3E965
:1027E000002301F049F84FF0010BC5E90201D2E7DF
:1027F00000F026FF34A3D3E9002306460F4601F07C
:10280000EFF90022394B01F039F801F083FC8346DF
:1028100001F080F924A3D3E90023CDE9040101F0FC
:10282000DFF902460B463046394601F025F820A371
:10283000D3E9002306460F46DDE9040101F0D0F993
:10284000BBF11F0FCDE902013046394652DC284B5F
:102850000BF1FF3253F82230A3424BD0DDE90223C3
:1028600001F00AF880468946C5E9008942464B4690
:102870003046394601F000F8DDE9022300F0FCFFA4
:10288000BAF1000FC5E9020185DA09F1004401F14E
:102890000043CBF1000BC5F800806C60A860EB60D2
:1028A00079E700BFAFF3008000004054FB21F93FFF
:1028B0003163621A61B4D03D0000601A61B4D03D4A
:1028C0007370032E8A19A33B83C8C96D305FE43F40
:1028D000FB21E93F7BD90240FB21F93FFB21394134
:1028E000FFFFEF7F00007041386A00080000E03F02
:1028F000B8690008DDE9022300F0BEFF2415C1F32A
:102900000A53E31A80468946102BC5E90089ADDDDC
:102910005BA3D3E90023DDE9040101F061F98046FE
:10292000894642464B463046394600F0A5FFCDE980
:102930000601DDE906233046394600F09DFF424698
:102940004B4600F099FF50A3D3E9002306460F46FB
:10295000DDE9040101F044F932463B4600F08CFF0A
:10296000CDE90201DDE90223DDE9060100F084FF83
:10297000C1F30A53E41A80468946312CC5E900891F
:1029800075DD44A3D3E90023DDE9040101F028F952
:102990008046894642464B46DDE9060100F06CFF61
:1029A00006460F4632463B46DDE9060100F064FF6D
:1029B00042464B4600F060FF38A3D3E9002380462F
:1029C0008946DDE9040101F00BF942464B4600F06F
:1029D00053FFCDE90201304639463FE700F04EFF94
:1029E0002B4B9C4206460F4623D023A3D3E900235A
:1029F00000F044FF02460B46C5E900233046394645
:102A000000F03AFF1CA3D3E9002300F037FF4FF09A
:102A1000FF3BC5E90201BEE66A68EB6802F10042CD
:102A200003F10043C0F1000B6A60EB60B3E60323DF
:102A30009AE613A3D3E9002300F020FF12A3D3E901
:102A4000002306460F4600F019FF02460B46C5E973
:102A500000233046394600F00FFF0BA3D3E90023D3
:102A600000F00CFF4FF0FF3BC5E9020193E6DDE902
:102A70000667FBE6AFF300803163621A61B4D03DB4
:102A80000000601A61B4D03D7370032E8A19A33B15
:102A9000FB21F93F0000002E8A19A33BC1492025E4
:102AA0009A837B39AFF300802DE9F04F21F0004984
:102AB000B9F1795F85B006460F4692469B466BDAC0
:102AC00001F028FB002800F0EA8032463B46304601
:102AD000394601F085F874A3D3E9002304460D4676
:102AE00001F07EF872A3D3E9002300F0C7FE22466E
:102AF0002B4601F075F870A3D3E9002300F0BCFE6B
:102B000022462B4601F06CF86DA3D3E9002300F0B8
:102B1000B5FE22462B4601F063F86BA3D3E90023F0
:102B200000F0AAFE22462B4601F05AF868A3D3E92A
:102B3000002300F0A3FE22462B4601F051F8CDE918
:102B40000001204629460022654B01F049F8DDE9E5
:102B50000023804689462046294601F041F8524626
:102B600004460D465B463046394601F039F80246C8
:102B70000B462046294600F07FFE02460B464046A3
:102B8000494600F079FE02460B460020554900F008
:102B900073FE05B0BDE8F08F02460B4601F020F849
:102BA00041A3D3E9002304460D4601F019F840A3E0
:102BB000D3E9002300F062FE22462B4601F010F814
:102BC0003DA3D3E9002300F057FE22462B4601F037
:102BD00007F83BA3D3E9002300F050FE22462B4622
:102BE00000F0FEFF38A3D3E9002300F045FE2246A3
:102BF0002B4600F0F5FF36A3D3E9002300F03EFE9C
:102C00002B46224600F0ECFF374B9945CDE90001F9
:102C100097DD364B994539DC0022A9F500130020D9
:102C200030499046994600F027FECDE90201204642
:102C3000294600222A4B00F0D3FF42464B4600F0C3
:102C40001BFEDDE90023804689462046294600F028
:102C5000C7FF524604460D465B463046394600F0F3
:102C6000BFFF02460B462046294600F005FE0246FD
:102C70000B464046494600F0FFFD02460B46DDE9A3
:102C8000020100F0F9FD05B0BDE8F08F9FED127B69
:102C90004FF000088DED027BDFF85490C7E7114933
:102CA000002005B0BDE8F08FD43888BEE9FAA8BD91
:102CB000C4B1B4BD9EEE213EAD529C804F7E923E8B
:102CC0009015CB19A001FA3E7751C1166CC1563F41
:102CD0004C5555555555A53F000000000000E73FF5
:102CE0000000E03F0000F03F3233D33F0000E93FF7
:102CF0000000D23FAFF300802DE9F04FADF51B7D12
:102D0000C64CA49EC64D54F8264007942646D41EB1
:102D100085FB0475E417C4EBA50424EAE4741D469E
:102D20000A93E34303EB4303013D02EBC303069322
:102D30002B460B940095651B9C190390089116D4A3
:102D40002C44013422AEA59F08E057F8250000F07E
:102D5000E1FE0135A542E6E8020108D0002DF4DAD3
:102D6000013500200021A542E6E80201F6D1079BCB
:102D7000002B2ADB079B03F1010A0A9B22AF07EB1A
:102D8000CA0A0DF5E4784FEAC30B3D46009B002BC1
:102D9000C0F28081DDF80C9005EB0B0400260027C3
:102DA00074E90223F9E8020100F01AFF02460B461B
:102DB0003046394600F062FDA54206460F46EFD187
:102DC00008355545E8E80267E0D1079D0A9A05F104
:102DD0008043013B9B000EA8191DC2EB42720344C5
:102DE00001440C93D3000D910593EC009AAB23445E
:102DF000002D53E9286728DD0DF5E47B5C440DF1D7
:102E0000340A0022874B3046394600F0E9FE01F0D3
:102E100081F900F07FFE0022834B8046894600F056
:102E2000DFFE02460B463046394600F025FD01F034
:102E300071F974E902234AF8040F4946404600F04C
:102E40001DFD5C4506460F46DBD1069C30463946E3
:102E5000224600F081FC00224FF07F5306460F46C9
:102E600000F0BEFE00F0F0FB0022704B00F0B8FE58
:102E700002460B463046394600F0FEFC0F46064639
:102E800001F048F9804600F045FE02460B46304608
:102E9000394600F0F1FC002C06460F4640F3E18075
:102EA000691E0EABC4F1180253F8213043FA02F048
:102EB00000FA02F9C4F117020EACC9EB030344F89F
:102EC0002130804443FA02F9B9F1000F32DD002DC0
:102ED00008F1010840F37182002214460DA907E0B1
:102EE000C3F180700BB108600124013295420DDD01
:102EF00051F8043F002CF3D0C3F1FF13013203F566
:102F00007F4395420B604FF00104F1DC069B002BE0
:102F10000DDD012B00F0AD80022B08D16A1E0EAB37
:102F20000EA953F82230C3F3150341F82230B9F14A
:102F3000020F7DD0304639460022002301F0B8F858
:102F4000002800F0C380079B05F1FF3A53450DDCD4
:102F50000EAB0D9803EB8503002253F8041D83424A
:102F600042EA0102F9D1002A40F00C82079B0EAA26
:102F7000013B52F82330002B40F01D820C9A0123B4
:102F800052F8041D01330029FAD0EB1805F1010AAB
:102F90009A45099340DC0B9B0A9A0AEB0309099BAB
:102FA00009F180491946A59B09F1FF39154401EB48
:102FB000020B03EB890922AB03EBC50803EBCB0340
:102FC000049372AB03EBCA0A59F8040F00F0A2FD98
:102FD000009B002BE8E802014FF000064FF00007CD
:102FE00015DB059BDDF80CB008EB0305444674E9DE
:102FF0000223FBE8020100F0F3FD02460B463046D7
:10300000394600F03BFCAC4206460F46EFD1049B2C
:103010009845EAE80267D7D1099DE6E6406B0008CB
:10302000ABAAAA2A0000703E0000704100002040B8
:1030300032463B460020BB4900F01EFC06460F46C8
:10304000002C3FF477AF069AB649002000F084FBCD
:1030500002460B463046394600F00EFC06460F4647
:1030600068E710D16B1E0EAA52F823304FEAE359DD
:103070002AE76A1E0EAB0EA953F82230C3F31603DB
:1030800041F8223053E70022A74B01F02FF850B946
:1030900081464FE70835002600275545E8E80267D6
:1030A0007FF474AE91E6002D08F10108C8BF4FF01F
:1030B00002093FF711AF32463B460020994900F024
:1030C000DBFB4FF0020906460F4633E7069BCDF8BF
:1030D0000C905A4230463946CDF8148000F03CFB43
:1030E0000022924B06460F4601F000F8002800F03F
:1030F000E68100228E4B3046394600F071FD01F02A
:1031000009F8044600F006FD0022884B00F068FD37
:103110000B4602463946304600F0AEFB00F0FAFF9F
:10312000069B183305F1010A06930EAB43F8250000
:1031300043F82A40069A7B49002000F00DFBBAF1C3
:10314000000F04460D46C0F2C1800AF101034FEAA8
:10315000C30872AF0EAA009302EB830907EB0806BF
:1031600059F8040D00F0D6FC22462B4600F038FD3D
:10317000002266E902016E4B2046294600F030FD30
:10318000BE4204460D46EBD1A8F1080806EB080341
:103190000DF59479CDF818A0DDF81CA0CDF81090AD
:1031A0004FF000089B46BAF1000FC0F28C80B8F1D6
:1031B000000FC0F28880DFF87C915D460026002772
:1031C000002401E0444510DCF5E80223F9E802019F
:1031D00000F006FD02460B463046394600F04EFB35
:1031E0000134A24506460F46ECDA049B03EBC80304
:1031F000C3E90067009B08F101089845ABF1080B93
:10320000D1D1A49BDDF818A0DDF81090032B35D8A0
:10321000DFE813F03B0004000400D500009B002011
:1032200009EBC304002174E9022300F027FB4C459D
:10323000F9D1039B002B00F08780089D024601F125
:10324000004385E80C0002460B46D9E9000100F076
:1032500013FBBAF1000F0BDD4CAD01240134F5E88E
:10326000022300F00BFBA245F8DA039B002B78D079
:1032700001F1004308990246C1E90223059B03F0CE
:1032800007000DF51B7DBDE8F08F009B002000219D
:1032900009EBC3090AF1FF3A79E9022300F0EEFADB
:1032A000BAF1FF3FF6D1039B0246002B65D001F136
:1032B00000430899C1E90023059B03F007000DF5C1
:1032C0001B7DBDE8F08F002600278EE7A49B032B13
:1032D000D4D8DFE803F04C3131020DF59479039B2B
:1032E00000200021002B00F0D880D9F80C30089F76
:1032F000D9F80420D9F80050D9F80840386103F112
:103300000043FB60059B3D6002F1004201F100417A
:1033100003F007007A60BC6079610DF51B7DBDE8A4
:10332000F08F00BF0000F03F0000E03F0000704160
:103330000000703E506B0008039B002000210DF53B
:103340009479002B7FF479AF089B0246C3E9000112
:103350000B46D9E9000100F08FFABAF1000F3FF7F0
:103360007BAF0B4608990246C1E9022386E7039B1F
:10337000002000210246002B99D10B460899C1E993
:10338000002399E70EAB069A53F82A30CDF80C903B
:10339000183ACDF814800692002B7FF4CBAE0EAB1A
:1033A00003EB8A0353F8041D0AF1FF3A183A002987
:1033B000F8D00692BEE60123E7E50024A6E5BAF1BF
:1033C000000F8CDD4FEACA0809EB080B08F1080C66
:1033D000DBE90067CC44CDF81080E0463BED027B92
:1033E000304653EC172B39468DED007B00F046FA42
:1033F00004460D4622462B46DDE9000100F03CFA6A
:1034000002460B463046394600F038FACB4568E9AB
:10341000020126462F46CBE90045DFD1BAF1010F64
:10342000DDF810807FF75BAF09EB080508F10804B1
:10343000D5E900AB4C44A0460DF5987C35ED027BF8
:1034400052465B4651EC170BCDF810C08DED007B5A
:1034500000F014FA06460F4632463B46DDE900010D
:1034600000F00AFA52465B4600F008FADDF810C098
:10347000654568E90201B246BB46C5E90067DDD192
:10348000002000214EAD74E9022300F0F7F9AC42B0
:10349000F9D1039B002B7FF428AFD9E90223089FC1
:1034A000D9E90045C7E90223059BC7E9040103F0F8
:1034B0000700C7E900450DF51B7DBDE8F08F3046DC
:1034C000394600F027FE0EABAA4643F8250031E648
:1034D0002DE9F04F21F00046B6F1795F85B0044642
:1034E0000D469046994604DA00F014FE002800F0DC
:1034F000838022462B462046294600F071FB224657
:103500002B4606460F4600F06BFB42A3D3E900238F
:1035100082468B463046394600F062FB3FA3D3E932
:10352000002300F0A9F932463B4600F059FB3DA3C9
:10353000D3E9002300F0A2F932463B4600F050FBED
:103540003AA3D3E9002300F097F932463B4600F056
:1035500047FB38A3D3E9002300F090F90E9BCDE997
:1035600000019BB3404649460022294B00F038FB3E
:10357000DDE90023CDE902015046594600F030FB59
:1035800002460B46DDE9020100F076F932463B4681
:1035900000F026FB42464B4600F06EF91AA3D3E931
:1035A000002306460F465046594600F019FB0246D6
:1035B0000B463046394600F061F902460B4620467C
:1035C000294600F059F905B0BDE8F08FDDE9002388
:1035D0003046394600F004FB0BA3D3E9002300F08A
:1035E0004BF952465B4600F0FBFA22462B4600F0B0
:1035F00045F905B0BDE8F08F2046294605B0BDE885
:10360000F08F00BFAFF30080495555555555C53F64
:103610000000E03F7CD5CF5A3AD9E53DEB9C2B8AA0
:10362000E6E55A3E7DFEB157E31DC73ED561C1199F
:10363000A0012A3FA6F810111111813FAFF30080BD
:1036400021F00041704700BF2DE9F843C1F30A584B
:10365000A8F2FF35132D02460B460C460746894655
:1036600006461DDC002D40DBDFF8E88048FA05F84F
:1036700008EA010E5EEA070717D034A3D3E9002356
:1036800000F0FCF80022002300F03AFD20B1002CED
:103690003FDB29EA0804002621463046BDE8F883CE
:1036A000332D06DDB5F5806F2FD010461946BDE8E5
:1036B000F883A8F2134E4FF0FF3727FA0EF70742B0
:1036C000F3D022A3D3E9002300F0D8F8002200238E
:1036D00000F016FD0028DFD0002C1FDB4C4626EA48
:1036E000070621463046BDE8F88318A3D3E9002336
:1036F00000F0C4F80022002300F002FD0028CBD027
:10370000002C19DB00263446C6E700F0B7F8BDE808
:10371000F8834FF480132B419944BAE7142D08D055
:10372000C8F5866808F10308012303FA08F39E1917
:10373000D4D309F10109D1E724F00042024B3A4306
:1037400018BF1C460026A7E70000F0BF9C75008844
:103750003CE4377EFFFF0F00F8B5C1F30A5604467C
:103760000D460B46174616BB21F00043034332D0EB
:103770000022374B00F034FA364A974204460D4691
:103780000B4637DBC1F30A56363E3E4440F2FE722A
:10379000964215DD22462B4629A1D1E9000100F011
:1037A0005FF827A3D3E9002300F01AFAF8BD40F22E
:1037B000FF72964224D03E4440F2FE729642E9DC0B
:1037C000002E09DD23F0FF4323F4E00343EA06550E
:1037D00020462946F8BDF8BD16F1350F15DA4CF232
:1037E00050339F4222462B461DDC17A1D1E9000130
:1037F00000F036F814A3D3E9002300F0F1F9F8BD86
:1038000002460B4600F03AF8F8BD23F0FF4323F4DC
:10381000E003363643EA06552046294600220E4B81
:1038200000F0DEF9F8BD06A1D1E9000100F018F8BA
:1038300003A3D3E9002300F0D3F9F8BDAFF3008070
:103840009C7500883CE4377E59F3F8C21F6EA501D1
:1038500000005043B03CFFFF0000903CAFF30080FD
:1038600003F0004321F0004243EA0201704700BF29
:1038700081F0004102E000BF83F0004330B54FEA21
:1038800041044FEA430594EA050F08BF90EA020F8E
:103890001FBF54EA000C55EA020C7FEA645C7FEA21
:1038A000655C00F0E2804FEA5454D4EB5555B8BF44
:1038B0006D420CDD2C4480EA020281EA030382EAB5
:1038C000000083EA010180EA020281EA0303362D47
:1038D00088BF30BD11F0004F4FEA01314FF4801C1A
:1038E0004CEA113102D0404261EB410113F0004F2C
:1038F0004FEA03334CEA133302D0524263EB4303E3
:1039000094EA050F00F0A780A4F10104D5F1200E80
:103910000DDB02FA0EFC22FA05F2801841F10001DB
:1039200003FA0EF2801843FA05F359410EE0A5F1AF
:1039300020050EF1200E012A03FA0EFC28BF4CF0E0
:10394000020C43FA05F3C01851EBE37101F0004596
:1039500007D54FF0000EDCF1000C7EEB00006EEBA3
:103960000101B1F5801F1BD3B1F5001F0CD349082D
:103970005FEA30004FEA3C0C04F101044FEA445284
:1039800012F5800F80F09A80BCF1004F08BF5FEA0B
:10399000500C50F1000041EB045141EA050130BDEB
:1039A0005FEA4C0C404141EB010111F4801FA4F18E
:1039B0000104E9D191F0000F04BF01460020B1FAE3
:1039C00081F308BF2033A3F10B03B3F120020CDA1B
:1039D0000C3208DD02F1140CC2F10C0201FA0CF0F9
:1039E00021FA02F10CE002F11402D8BFC2F1200C5E
:1039F00001FA02F120FA0CFCDCBF41EA0C01904014
:103A0000E41AA2BF01EB0451294330BD6FEA04045C
:103A10001F3C1CDA0C340EDC04F11404C4F1200247
:103A200020FA04F001FA02F340EA030021FA04F359
:103A300045EA030130BDC4F10C04C4F1200220FAB0
:103A400002F001FA04F340EA0300294630BD21FAEE
:103A500004F0294630BD94F0000F83F4801306BFB4
:103A600081F480110134013D4EE77FEA645C18BFA8
:103A70007FEA655C29D094EA050F08BF90EA020F3F
:103A800005D054EA000C04BF1946104630BD91EA37
:103A9000030F1EBF0021002030BD5FEA545C05D13A
:103AA0004000494128BF41F0004130BD14F5800479
:103AB0003CBF01F5801130BD01F0004545F0FE41ED
:103AC00041F470014FF0000030BD7FEA645C1ABF22
:103AD000194610467FEA655C1CBF0B46024650EA59
:103AE000013406BF52EA033591EA030F41F4002185
:103AF00030BD00BF90F0000F04BF0021704730B50B
:103B00004FF4806404F132044FF000054FF00001DF
:103B100050E700BF90F0000F04BF0021704730B5A0
:103B20004FF4806404F1320410F0004548BF404275
:103B30004FF000013EE700BF42004FEAE2014FEACA
:103B400031014FEA02701FBF12F07F4393F07F4FA5
:103B500081F06051704792F0000F14BF93F07F4FD7
:103B6000704730B54FF4607401F0004521F000411A
:103B700020E700BF50EA010208BF704730B54FF0A0
:103B800000050AE050EA010208BF704730B511F0A5
:103B9000004502D5404261EB41014FF4806404F1DD
:103BA00032045FEA915C3FF4DCAE4FF003025FEA5F
:103BB000DC0C18BF03325FEADC0C18BF033202EBE7
:103BC000DC02C2F1200300FA03FC20FA02F001FA41
:103BD00003FE40EA0E0021FA02F11444C1E600BFE0
:103BE00070B54FF0FF0C4CF4E06C1CEA11541DBF93
:103BF0001CEA135594EA0C0F95EA0C0F00F0DEF85E
:103C00002C4481EA030621EA4C5123EA4C5350EA42
:103C1000013518BF52EA033541F4801143F4801393
:103C200038D0A0FB02CE4FF00005E1FB02E506F024
:103C30000042E0FB03E54FF00006E1FB03569CF079
:103C4000000F18BF4EF0010EA4F1FF04B6F5007F7F
:103C500064F5407404D25FEA4E0E6D4146EB0606F1
:103C600042EAC62141EA55514FEAC52040EA5E507A
:103C70004FEACE2EB4F1FD0C88BFBCF5E06F1ED824
:103C8000BEF1004F08BF5FEA500E50F1000041EB5B
:103C9000045170BD06F0004646EA010140EA020008
:103CA00081EA0301B4EB5C04C2BFD4EB0C0541EA2A
:103CB000045170BD41F480114FF0000E013C00F33F
:103CC000AB8014F1360FDEBF002001F0004170BD63
:103CD000C4F10004203C35DA0C341BDC04F114047C
:103CE000C4F1200500FA05F320FA04F001FA05F208
:103CF00040EA020001F0004221F0004110EBD370D5
:103D000021FA04F642EB06015EEA430E08BF20EA00
:103D1000D37070BDC4F10C04C4F1200500FA04F3A3
:103D200020FA05F001FA04F240EA020001F0004135
:103D300010EBD37041F100015EEA430E08BF20EAA8
:103D4000D37070BDC4F1200500FA05F24EEA020EF0
:103D500020FA04F301FA05F243EA020321FA04F01F
:103D600001F0004121FA04F220EA020000EBD370D6
:103D70005EEA430E08BF20EAD37070BD94F0000FD6
:103D80000FD101F00046400041EB010111F4801F0A
:103D900008BF013CF7D041EA060195F0000F18BFBB
:103DA000704703F00046520043EB030313F4801FF7
:103DB00008BF013DF7D043EA0603704794EA0C0FB1
:103DC0000CEA135518BF95EA0C0F0CD050EA4106C7
:103DD00018BF52EA4306D1D181EA030101F0004144
:103DE0004FF0000070BD50EA410606BF104619466C
:103DF00052EA430619D094EA0C0F02D150EA013678
:103E000013D195EA0C0F05D152EA03361CBF1046B8
:103E100019460AD181EA030101F0004141F0FE4157
:103E200041F470014FF0000070BD41F0FE4141F4DB
:103E3000780170BD70B54FF0FF0C4CF4E06C1CEADB
:103E400011541DBF1CEA135594EA0C0F95EA0C0F90
:103E500000F0A7F8A4EB050481EA030E52EA03354B
:103E60004FEA013100F088804FEA03334FF080556C
:103E700045EA131343EA12634FEA022245EA111599
:103E800045EA10654FEA00260EF000419D4208BF4A
:103E9000964244F1FD0404F5407402D25B084FEAF7
:103EA0003202B61A65EB03055B084FEA32024FF4A3
:103EB00080104FF4002CB6EB020E75EB030E22BF00
:103EC000B61A754640EA0C005B084FEA3202B6EBC0
:103ED000020E75EB030E22BFB61A754640EA5C006F
:103EE0005B084FEA3202B6EB020E75EB030E22BFFF
:103EF000B61A754640EA9C005B084FEA3202B6EB00
:103F0000020E75EB030E22BFB61A754640EADC00BE
:103F100055EA060E18D04FEA051545EA16754FEA20
:103F200006164FEAC30343EA52734FEAC2025FEA3E
:103F30001C1CC0D111F4801F0BD141EA00014FF0CD
:103F400000004FF0004CB6E711F4801F04BF01439E
:103F50000020B4F1FD0C88BFBCF5E06F3FF6AFAEBA
:103F6000B5EB030C04BFB6EB020C5FEA500C50F14A
:103F7000000041EB045170BD0EF0004E4EEA1131CD
:103F800014EB5C04C2BFD4EB0C0541EA045170BDD4
:103F900041F480114FF0000E013C90E645EA060E18
:103FA0008DE60CEA135594EA0C0F08BF95EA0C0F46
:103FB0003FF43BAF94EA0C0F0AD150EA01347FF48E
:103FC00034AF95EA0C0F7FF425AF104619462CE765
:103FD00095EA0C0F06D152EA03353FF4FDAE1046C8
:103FE000194622E750EA410618BF52EA43067FF419
:103FF000C5AE50EA41047FF40DAF52EA43057FF4A9
:10400000EBAE12E74FF0FF3C06E000BF4FF0010CB3
:1040100002E000BF4FF0010C4DF804CD4FEA410C17
:104020007FEA6C5C4FEA430C18BF7FEA6C5C1BD0E4
:1040300001B050EA410C0CBF52EA430C91EA030F65
:1040400002BF90EA020F0020704710F1000F91EAC2
:10405000030F58BF994208BF90422CBFD8176FEA90
:10406000E37040F0010070474FEA410C7FEA6C5C5E
:1040700002D150EA013C07D14FEA430C7FEA6C5C65
:10408000D6D152EA033CD3D05DF8040B704700BF91
:104090008446104662468C461946634600E000BFDF
:1040A00001B5FFF7B7FF002848BF10F1000F01BDB1
:1040B0004DF808EDFFF7F4FF0CBF012000205DF87C
:1040C00008FB00BF4DF808EDFFF7EAFF34BF012001
:1040D00000205DF808FB00BF4DF808EDFFF7E0FF9A
:1040E00094BF012000205DF808FB00BF4DF808EDEB
:1040F000FFF7CEFF94BF012000205DF808FB00BF52
:104100004DF808EDFFF7C4FF34BF012000205DF833
:1041100008FB00BF4FEA410212F5001215D211D57B
:104120006FF47873B3EB625212D94FEAC12343F0B4
:10413000004343EA505311F0004F23FA02F018BF36
:10414000404270474FF00000704750EA013005D1FF
:1041500011F0004008BF6FF0004070474FF00000C2
:10416000704700BF4FEA4102B2F1E04324BFB3F50C
:10417000001CDCF1FE5C0DD901F0004C4FEAC002DE
:104180004CEA5070B2F1004F40EB830008BF20F0C2
:104190000100704711F0804F21D113F13872BCBF7C
:1041A00001F00040704741F480114FEA5252C2F1D1
:1041B0001802C2F1200C10FA0CF320FA02F018BF1A
:1041C00040F001004FEAC1234FEAD32303FA0CFC6D
:1041D00040EA0C0023FA02F34FEA4303CCE77FEAFC
:1041E000625307D150EA01331EBF4FF0FE4040F446
:1041F0004000704701F0004040F0FE4040F40000F5
:10420000704700BF014B1868704700BF6C88FE1FE5
:1042100070B50E4B0E4CE41AA41000251E46A542A4
:1042200004D056F8253098470135F8E7FDF724F912
:10423000084C094BE41AA41000251E46A54204D0E0
:1042400056F8253098470135F8E770BDA888FE1F5D
:10425000A888FE1FA888FE1FA888FE1F10B5431E51
:104260000A44914204D011F8014B03F8014FF8E7DA
:1042700010BD02440346934202D003F8011BFAE743
:1042800070472DE9F04788B0002B149F1299109EBB
:10429000DDF84CA01D46B8BF05F1004327F020070C
:1042A000B6BF1D4600232D231446B8BF1446462F23
:1042B0000B7003D0452F03D1013601E0032300E04A
:1042C00002238DE8480406AB039307AB0493224610
:1042D0002B4600F02DFD472F804602D1119BDB07B6
:1042E00026D5462F08EB060911D198F80030302B5F
:1042F0000AD12046294600220023FFF7D9FE18B92B
:10430000C6F10106CAF80060DAF800309944204688
:10431000294600220023FFF7CBFE08B1CDF81C9000
:10432000079B4B4504D25A1C079230221A70F7E7BC
:10433000079B159AC8EB03034046136008B0BDE81D
:10434000F08773B503460029B8BF494203F8022B32
:10435000B4BF2D222B220929427019DD0DF107046B
:1043600026460A2291FBF2F502FB15113031092D88
:1043700004F8011D2946F4DC3031651E04F8011CE7
:10438000B5421A460AD215F8012B03F8012BF7E7BC
:1043900030241A46214402F8024B5970101A02B018
:1043A00070BD00002DE9F04F91B08B4615461E46BA
:1043B0001A9F044601F048FBD0F800A0504600F0D8
:1043C00007FC00230E933B680990073323F0070393
:1043D000D3E9000103F108029BF818803A60CBE9A9
:1043E000120100F0CBFB0128DBE9120119D10022F8
:1043F0000023FFF767FE10B12D238BF84330A04B4D
:10440000A04FB8F1470F88BF1F460323CBF81030E9
:10441000DBF8003023F00403CBF800304FF0000944
:10442000A1E000F0ABFBDBF8003048B9964A974FAB
:10443000B8F1470F88BF17460322CBF81020E9E7F1
:10444000DBF804209BED127B571C8DED0A7B01D11C
:10445000062209E0B8F1670F02D0B8F1470F05D185
:10446000002A40F0C7810122CBF80420DBF80420A9
:10447000CDF8108043F480638DE80C00CBF8003059
:104480000DF1330302930DAB03930EAB05930023A1
:1044900006932046DDE90A23FFF7F3FE08F0DF0369
:1044A000472B07460AD10D9BD81C03DBDBF8042001
:1044B000934237DDA8F102085FFA88F8B8F1650F7A
:1044C0000D9915D8013942460BF150000D91FFF7B7
:1044D00038FF0E9A8318012A8146CBF8103003DC8E
:1044E000DBF80020D10738D50133CBF8103034E0A9
:1044F000B8F1660F18D10029DBF8043009DDCBF8DC
:1045000010101BB9DBF80020D20721D501330B4472
:104510001CE01BB9DBF80020D00701D5023315E001
:10452000012313E04FF067080D9B0E9A934207DBBF
:10453000DBF80020CBF81030D10709D5013305E0B6
:10454000002BD4BFC3F1020301231344CBF8103076
:104550000D9BCBF858304FF000099DF8333013B164
:104560002D238BF843300096204659460FAA2B4640
:1045700000F05CF9013002D14FF0FF3052E1DBF87E
:1045800000305A0505D4204629463A46DBF810305B
:1045900008E1B8F1650F40F2D080DBE9120100229A
:1045A0000023FFF785FD50B320462946384A0123F2
:1045B000B0470130E0D00E9B0D9A9A4209DBDBF840
:1045C0000030D80705D4DBF800309F0700F11081D8
:1045D00007E1204629465246099BB0470130CBD01F
:1045E00000270E9B013B9F42EDDA204629460BF146
:1045F0001A020123B0470130BED00137F1E70D9B0D
:10460000002B29DC20462946214A0123B0470130EE
:10461000B2D00D9B2BB90E9B1BB9DBF80030D9072C
:10462000D1D5204629465246099BB0470130A3D038
:104630004FF000080D9B5B4298452046294608DA5A
:104640000BF11A020123B047013095D008F101089F
:10465000F0E73A460E9BA5E0DBF858200E9B9A4205
:10466000A8BF1A46002A914602DC4FF000081CE061
:10467000204629463A464B46B0470130F5D17BE704
:104680009C6B0008986B0008A46B0008A06B0008E6
:10469000A86B0008204629460BF11A020123B047F7
:1046A00001303FF469AF08F10108DBF85830B9F187
:1046B000000FACBFC9EB03021A469045EADB07EBDB
:1046C00003080D9A0E9B9A4210DBDBF80030DA07E4
:1046D0000CD40E9A1744C8EB07030D9FD21B9342CC
:1046E000A8BF1346002B1F4608DC0EE020462946D3
:1046F0005246099BB0470130EBD13DE720462946A1
:104700004246B04701303FF437AF4FF000080AE0AF
:10471000204629460BF11A020123B04701303FF42D
:104720002BAF08F101080D9A0E9B002FA3EB02039B
:10473000A8BFDB1B9845EBDB45E70E9A012A01DC9D
:10474000DB0736D5204629463A460123B0470130DB
:104750003FF412AF204629465246099BB04701302C
:104760003FF40AAFDBE9120100220023FFF7A0FCAF
:10477000E8B90E9B204629467A1C013B1DE02046E5
:1047800029460BF11A020123B04701303FF4F4AE81
:1047900001370E9B013B9F42F1DB204629460BF17E
:1047A00050024B46B04701307FF40DAFE4E60027DE
:1047B000EFE7204629463A460123B0470130ECD1C5
:1047C000DAE6204629460BF119020123B0470130F1
:1047D0003FF4D2AE0137DBF80C300F9A9B1A9F42A0
:1047E000EFDBDBF80C000F9B9842B8BF184619E0CE
:1047F0000027F0E743F480638DE80C00CBF800302D
:104800000DF1330302930DAB03930EAB059300231D
:104810000693CDF810802046DDE90A23FFF731FD2D
:10482000074640E611B0BDE8F08F00BF2DE9F84320
:1048300091461F468A680B69DDF820809342B8BF15
:104840001346C9F8003091F8432006460C4612B1D1
:104850000133C9F800302368990642BFD9F8003007
:104860000233C9F80030256815F006051CD094F80D
:1048700043302268003318BF012392061FD5E11888
:104880005A1C302081F84300224494F8451082F8E5
:104890004310023313E03046394604F11902012374
:1048A000C047013007D00135E368D9F800209B1AD2
:1048B0009D42F0DBDBE74FF0FF30BDE8F883304688
:1048C000394604F14302C0470130F4D02268D9F8D8
:1048D0000050E36802F00602042A08BF5D1B22694B
:1048E000A3680CBF25EAE57500259342C4BF9B1A57
:1048F000ED184FF00009A9450ADA3046394604F1AF
:104900001A020123C0470130D5D009F10109F2E7AD
:104910000020BDE8F88300002DE9FF410C46174652
:10492000227E6E2A984606460A9B01F1430100F05A
:10493000A98012D8632A23D00AD8002A00F0B680B2
:10494000582A40F0C58084F84520DFF8F8E151E0AE
:10495000642A1ED0692A1CD0BAE0732A00F0AA800B
:1049600009D86F2A2BD0702A40F0B280226842F01A
:104970002002226039E0752A21D0782A35D0A7E0BC
:104980001A68111D1960136884F8423004F1420559
:10499000A2E020681A6810F0800F03D0101D186084
:1049A000136805E04506F9D5101D1860B2F900300E
:1049B000002B3BDA2D225B4284F8432036E020684E
:1049C0001A6810F0800F03D0101D1860136804E0FF
:1049D0004006F9D5101D18601388227EDFF864E1C7
:1049E0006F2A0CBF08220A221CE07822DFF858E167
:1049F00084F845202268186812F0800F00F1040541
:104A00001D6001D0036802E05506FBD50388D0077E
:104A100044BF42F0200222601BB9226822F020022B
:104A200022601022002084F8430002E0DFF814E145
:104A30000A226568A560002DA2BF206820F004004E
:104A4000206003B965B10D46B3FBF2F002FB1033F1
:104A50001EF8033005F8013D03460028F4D100E0BC
:104A60000D46082A0BD12368DA0708D52369626846
:104A70009A42DEBF302305F8013C05F1FF35491BA2
:104A800021612EE025681A68606915F0800F03D057
:104A9000151D1D60136808E015F0400F02F10405B4
:104AA0001D60136801D0188000E0186000232361A6
:104AB0000D4616E01A68111D1960156862682846CF
:104AC000002100F0CDFF08B1401B6060636804E086
:104AD00004F1420584F8422001232361002384F875
:104AE0004330CDF800803046214603AA3B46FFF70D
:104AF0009DFE013002D14FF0FF301FE030463946B5
:104B00002A462369C0470130F5D023689B0705D4A6
:104B1000E068039B9842B8BF18460FE00025E368A1
:104B2000039A9B1A9D42F3DA3046394604F1190282
:104B30000123C0470130DED00135F0E704B0BDE805
:104B4000F08100BFAA6B0008BB6B00080FB40A4BD2
:104B500013B51C6824B1A36913B9204600F0ECFE1C
:104B600005AB2046A168049A019301F037FB02B01F
:104B7000BDE8104004B070476C88FE1F0A4631F053
:104B8000004110B503461BD00F48A2F580148442A3
:104B900010D902F1FF420C4802F5E002824209D925
:104BA000B1F5801F08D3094A914207D1B3FA83F0C7
:104BB000400910BD042010BD032010BD002010BD11
:104BC0000028E6D1022010BDFFFFDF7F0000F07F4C
:104BD000034613F8012B002AFBD1181A013870473D
:104BE00070B5AAB1451E01396B7811F8014FA34287
:104BF00005F1010606D16FF00104641B1444E04284
:104C000002D11C46181B70BD3546002BECD1F8E7CD
:104C1000104670BD2DE9F74F03690C69A342804629
:104C2000C0F28180013C01F114074FEA840E00F1CB
:104C3000140657F8245006EB0E030193013556F87D
:104C40002430B3FBF5F507EB0E09C5B34FF0000AAE
:104C50003846B446D34650F8043B9AB21B0C02FBCC
:104C600005A26B4303EB124392B2C2EB0B02BCF8FA
:104C700000B04FEA134A12FA8BF21FFA83FBDCF8FA
:104C80000030CBEB134303EB224392B242EA0342E0
:104C900048454FEA234B4CF8042BDCD956F80E302C
:104CA0006BB9019B043BB3421A4602D8C8F81040C6
:104CB00005E01268043B002AF8D1013CF3E74046C6
:104CC00001F0EFF800282CDB013530464FF0000EE4
:104CD00057F8041BD0F800C08AB2C2EB0E03090CCF
:104CE00013FA8CF3C1EB1C4202EB23429BB243EA62
:104CF00002434F454FEA224E40F8043BE8D956F8AC
:104D0000242006EB840362B9043BB3421A4602D85E
:104D1000C8F8104005E01268043B002AF8D1013CB5
:104D2000F3E7284600E0002003B0BDE8F08F000064
:104D30002DE9F04F456A97B08246239CCDE90223C6
:104D400045B9102000F084FECAF824004560856053
:104D50000560C560DAF82430196859B15A684A60AC
:104D6000012393408B60504600F0BEFEDAF82430F9
:104D700000221A60039BA24A002BBFBF01232360BD
:104D8000039B23F00043B8BF0393039FA4BF0023FA
:104D9000236027F000431B0D1B0593421DD1229A6F
:104DA00042F20F731360029B43B9964A964BC7F3C6
:104DB0001300002814BF1846104600E09248249BB8
:104DC000002B00F07385C37813B100F1080300E0F5
:104DD000C31C249A136000F069BDDDE9024500227E
:104DE000204629460023FFF763F9804658B1229AEE
:104DF00001231360249B002B00F046858348186034
:104E0000013800F053BD15AB009314AB019350462D
:104E100022462B4601F0C0F8C7F30A5607905EB150
:104E2000C5F3130343F07F51204641F44011A6F22D
:104E3000FF36CDF84C801DE0159B149E1E446FF488
:104E400082639E42ADBF029A714B029A06F21243F0
:104E5000A3BF22FA03F06F4B9B1B9B1BAABF9F4073
:104E600002FA03F03843FEF745FE0123A1F1F87181
:104E7000013E13930022684BFEF7FEFC5AA3D3E9D0
:104E80000023FEF7ADFE5AA3D3E90023FEF7F6FC9C
:104E9000044630460D46FEF73DFE57A3D3E90023F6
:104EA000FEF79EFE02460B4620462946FEF7E6FC2C
:104EB00004460D46FFF72EF9294683460022204678
:104EC0000023FFF7FFF858B15846FEF723FE0246CD
:104ED0000B4620462946FFF7EBF808B90BF1FF3BDC
:104EE000BBF1160F0DD84D4B03EBCB03D3E90001FB
:104EF000DDE90223FFF704F930B10BF1FF3B00239A
:104F000000E00123129300E01290149B9E1B731E7D
:104F10000A9345BF5B420993002300234CBF0A93C9
:104F20000993BBF1000F07DB0A9BCDF834B05B445B
:104F30000A9300230B9308E0099BCBEB030309932F
:104F4000CBF100030B9300230D93209B092B28D852
:104F5000052BC4BF043B2093209BA3F10203CCBFCD
:104F600000250125032B21D8DFE803F0020E0410F1
:104F7000002300E001230C93219B002B20DC012364
:104F8000069305931A4619E0002300E001230C93D1
:104F9000219B5B4406930133012B0593B8BF01238A
:104FA00011E00125002320930C9501E001230C93CF
:104FB0004FF0FF330693059300221223219202E063
:104FC000219B06930593DAF82440002262600421B5
:104FD00001F114029A4223D86268013262604900EA
:104FE000F6E700BFAFF3008061436F63A787D23F4E
:104FF000B3C8608B288AC63FFB799F501344D33FC8
:105000000000F07FCC6B0008D56B0008A96B00088E
:10501000EEFBFFFF0EFCFFFF0000F83F486C0008AE
:105020005046616800F02BFDDAF8243020601B68E0
:105030000893059B0E2B00F24B81002D00F0488158
:105040009DED027BBBF1000F8DED107B31DDB34A8E
:105050000BF00F034FEA2B1702EBC303F806D3E95B
:1050600000450CD5AE4B51EC170BD3E90823FEF7E6
:10507000E1FE07F00F07CDE90201032600E002265A
:10508000DFF89C8277B1F90708D520462946D8E990
:105090000023FEF7A5FD013604460D467F1008F1FA
:1050A0000808EFE7DDE9020122462B46FEF7C2FEC3
:1050B0001BE0CBF10004DCB1984B994D04F00F02DA
:1050C00003EBC203DDE91001D3E90023FEF788FDFD
:1050D000241102264CB1E20704D5D5E9002301369C
:1050E000FEF77EFD64100835F4E7CDE9020100E02B
:1050F0000226129BDBB1DDE902450022204629464B
:10510000884BFEF7DFFF90B1059B83B1069B002B18
:1051100040F3DA80294620460022834BFEF760FDEB
:105120000BF1FF37CDE902010136069D01E0059D37
:105130005F469DED027B30468DED0E7BFEF7EAFC6F
:10514000DDE90E23FEF74CFD0022784BFEF796FBBF
:105150008046A1F15079CDB90022754BDDE90E01F1
:10516000FEF78AFB42464B46CDE90201FEF7C8FF37
:10517000002840F04682424609F10043DDE9020181
:10518000FEF7A0FF002840F036829DE0634B0C99AB
:105190006A1E03EBC203002949D0D3E90023002093
:1051A0006449FEF747FE42464B46FEF765FBDDE9E4
:1051B0000E89CDE90201089C49464046FEF7AAFF48
:1051C0000646FEF7A7FC02460B4640464946FEF758
:1051D00053FB303604F8016BDDE902238046894633
:1051E000FEF770FF002840F0408342464B46002007
:1051F0004C49FEF741FBDDE90223FEF763FF00287F
:1052000040F0D380089BE31AAB425DDADDE902018E
:105210000022454BFEF7E4FC0022CDE90201424B9F
:1052200040464946FEF7DCFC80468946C4E7D3E9A0
:10523000000142464B46FEF7D3FC089BCDE9020134
:10524000DDE90E895C191D4649464046FEF762FFBE
:105250000646FEF75FFC303602460B46404649469E
:10526000FEF70AFB05F8016BA5428046894624D16A
:105270000022304BDDE90201FEF700FB02460B463F
:1052800040464946FEF73CFF002840F08E80DDE9AD
:10529000022300202749FEF7EFFA02460B4640465C
:1052A0004946FEF70FFF78B114F8013C302B04F1AA
:1052B000FF3240F0DA821446F6E700221A4BFEF77E
:1052C0008FFC80468946BFE7DDE91023CDE9022344
:1052D000159B002BC0F28B80BBF10E0F00F3878073
:1052E0000E4B03EBCB03D3E90067219B002B23DAA2
:1052F000059B002B20DC40F07D81304600220C4BCA
:105300003946FEF76DFCDDE90223FEF7EFFE059D51
:105310002E46002840F0708175E100BF486C0008FF
:10532000106D00080000F03F0000244000001C4009
:10533000000014400000E03FDDE90289089C32468D
:105340003B4640464946FEF775FDFEF7E3FE05463F
:10535000FEF7E0FB32463B46FEF742FC0B460246B8
:1053600049464046FEF788FA05F1300E089B04F8DE
:1053700001EBC3EB040E059B9E452BD102460B4669
:10538000FEF77CFA32463B4680468946FEF7B8FE79
:1053900070B94046494632463B46FEF789FE002832
:1053A00000F06482EB0703D460E2BB4600E01C46D9
:1053B00014F8012C392A04F1FF3307D1089A9342DB
:1053C000F5D1302313700BF1010B13461A7801321B
:1053D0001A704BE20022A44BFEF702FC00220023CD
:1053E00080468946FEF764FE0028A8D03EE20C9A6B
:1053F000002A32D0209A012A0ADC139A12B103F251
:10540000334302E0149BC3F136030B9D099C18E063
:10541000059B5D1E0B9BAB42BFBF0B9B0B95EA1A16
:105420000D9BB6BF9B185D1B0D93059BB8BF002558
:10543000002BB9BF099B059A099C059BBCBF9C1A10
:105440000023099A1A4409920A9A50461A440121E3
:105450000A9200F0EBFB064602E00B9D099C0C9EB5
:1054600064B10A9B002B09DDA342099AA8BF234619
:10547000D21A09920A9AE41AD31A0A930B9B002BA8
:1054800020DD0C9BC3B1002D10DD31462A4650466D
:1054900000F066FC06463146079A504600F0CFFB06
:1054A00007990746504600F01FFB07970B9B5A1BB6
:1054B00008D05046079902E007990B9A504600F031
:1054C0004FFC07905046012100F0B0FB0D9B002BD4
:1054D00005460ADD29461A46504600F041FC209B4D
:1054E000012B054604DD00271BE0209B012B13DC6C
:1054F000029B8BB9039BC3F313037BB9039B23F07C
:1055000000473F0D3F0557B1099B013309930A9BA3
:1055100001330A93012702E0002700E0029F0D9B60
:1055200043B12B6905EB8303186900F032FBC0F12E
:10553000200000E001200A9B184410F01F0008D052
:10554000C0F12003042B02DDC0F11C0002E008D0F2
:1055500018461C30099B034409930A9B03440444E6
:105560000A93099B002B05DD504607991A4600F067
:1055700045FC07900A9B002B05DD294650461A463C
:1055800000F03CFC0546129BEBB10798294600F061
:1055900088FC002817DA0023504607990A2200F0F9
:1055A000BAFA0C9B07900BF1FF3B002B00F07081C7
:1055B0003146002350460A2200F0ADFA069B002B2C
:1055C000064633DC6DE1059B002B26DC209B022B7D
:1055D00023DD059B0693069B73B929460522504699
:1055E00000F099FA05462946079800F05AFC002871
:1055F00009DC01E000252E46219B089C6FEA030B85
:1056000008E0BB462E46089B089A5C1C31231370A9
:105610000BF1010BB146002614E10C9B23B9059B4D
:105620000693089F079CCCE0059B0693002C05DDA4
:1056300031465046224600F0E1FB0646B7B171689C
:10564000504600F01CFA32690232044606F10C01A1
:1056500092000C30FEF702FE50462146012200F077
:10566000CDFB814603E000BF00002440B146089F07
:10567000079C29462046FFF7CDFA3146099000F1F4
:105680003008204600F00DFC4A4605902946504659
:1056900000F023FCC26803463AB919462046079336
:1056A00000F0FFFB079B024600E00122504619462E
:1056B000079200F019FA079AA2B9209B93B9029BAE
:1056C00003F0010373B9B8F1390F3B46079440D09A
:1056D000059B002BC8BF099B07F10104C8BF03F15C
:1056E00031083DE0059B002B04DA002AC4460794EC
:1056F00008DC21E024D1209B13BB029B03F00103B3
:10570000F3B9F2E72146012250460597CDF808800B
:1057100000F074FB2946079000F0C3FB0028DDF879
:1057200008C0059B03DC07D118F0010F04D0B8F1C5
:10573000390F0ED008F1010C7C1C87F800C081E005
:10574000002A07F101020EDDB8F1390F3B4607943C
:1057500003D1392201371A7057E0144608F10108C5
:1057600087F800806EE0089B02F8018CD31A174678
:10577000069A93423AD021460A220023504600F06E
:10578000CAF94E450446314650464FF00A024FF0E2
:10579000000304D100F0BFF90646814669E700F036
:1057A000BAF9494606460A225046002300F0B3F9EA
:1057B00081465EE7214650460A22002300F0ABF9FD
:1057C000044620462946FFF725FA00F1300807F87D
:1057D000018B089B069AFB1A9342EBDB089B012A7C
:1057E000ACBF9B180133B1461F460026214601225B
:1057F000504600F003FB2946079000F052FB0028BA
:1058000003DC16D118F0010F13D03C4614F8013C0C
:10581000392B04F1FF3209D1089B9A4204D10BF1D4
:10582000010B3123089A02E01446EFE701331370AD
:1058300008E03C4614F8013C302B04F1FF3201D162
:105840001446F7E75046294600F04EF9B9F1000F2B
:105850000CD02EB14E4503D05046314600F044F9ED
:105860005046494600F040F900E0BB4650460799D3
:1058700000F03AF90023229A23700BF10103136020
:10588000249B1BB11C6001E00A480FE008980DE062
:10589000069B002B3FF7C5AE209B022B3FF79BAE2C
:1058A000BFE6209B022B3FF796AEBFE617B0BDE8E0
:1058B000F08F00BFA86B0008014900F0A7B800BF37
:1058C00061670008002310B50446036043608360ED
:1058D00081814366C28103614361836119465C3003
:1058E0000822FEF7C6FC054B6362054BA362054B1D
:1058F000E362054B2462236310BD00BF0D64000802
:105900002F640008676400088B64000870B5682382
:105910004D1E5D430E4605F1740100F0E1FB0446A7
:1059200040B1002180E842000C30A06005F168021F
:10593000FEF79FFC204670BD836910B5044633BB5B
:105940008364C3640365124B124A1B6882629842E7
:1059500004BF0123836100F01FF86060204600F05F
:105960001BF8A060204600F017F80421E060002238
:105970006068FFF7A7FFA06809210122FFF7A2FFD7
:10598000E06812210222FFF79DFF0123A36110BDF1
:10599000946B0008B9580008F8B51B4B1E68B36932
:1059A000074613B93046FFF7C7FF4836B468736837
:1059B000013B04D4B4F90C5075B16834F8E733688E
:1059C0002BB938460421FFF7A1FF306008B13668D3
:1059D000ECE70C233B60F8BD4FF6FF73E381012336
:1059E000A38165662560A560656025616561A56127
:1059F00004F15C0029460822FEF73BFC6563A563C1
:105A0000A564E5642046F8BD946B00082DE9F843D1
:105A10008046894600F14804002694B1A56867686D
:105A2000013F0CD4AB89012B07D9B5F90E300133F6
:105A300003D040462946C84706436835F0E7246846
:105A4000EBE73046BDE8F883004870477088FE1FDA
:105A5000024B0146186800F043BB00BF6C88FE1F74
:105A600010B5C9B202449042034606D01C788C425D
:105A700000F10100F7D1184610BD002010BD70B52F
:105A8000456A04460E463DB91020FFF7E1FF60620B
:105A9000456085600560C560656AEB6843B1636A0F
:105AA000DB6853F8260078B1026843F8262017E037
:105AB00020460421212200F0C1FA636AE860DB6815
:105AC000002BECD1002070BD012101FA06F56A1D02
:105AD0002046920000F0B2FA0028F3D046608560BC
